{
  "contractName": "Funding",
  "abi": [
    {
      "inputs": [],
      "stateMutability": "nonpayable",
      "type": "constructor"
    },
    {
      "anonymous": false,
      "inputs": [
        {
          "indexed": true,
          "internalType": "bytes32",
          "name": "role",
          "type": "bytes32"
        },
        {
          "indexed": true,
          "internalType": "bytes32",
          "name": "previousAdminRole",
          "type": "bytes32"
        },
        {
          "indexed": true,
          "internalType": "bytes32",
          "name": "newAdminRole",
          "type": "bytes32"
        }
      ],
      "name": "RoleAdminChanged",
      "type": "event"
    },
    {
      "anonymous": false,
      "inputs": [
        {
          "indexed": true,
          "internalType": "bytes32",
          "name": "role",
          "type": "bytes32"
        },
        {
          "indexed": true,
          "internalType": "address",
          "name": "account",
          "type": "address"
        },
        {
          "indexed": true,
          "internalType": "address",
          "name": "sender",
          "type": "address"
        }
      ],
      "name": "RoleGranted",
      "type": "event"
    },
    {
      "anonymous": false,
      "inputs": [
        {
          "indexed": true,
          "internalType": "bytes32",
          "name": "role",
          "type": "bytes32"
        },
        {
          "indexed": true,
          "internalType": "address",
          "name": "account",
          "type": "address"
        },
        {
          "indexed": true,
          "internalType": "address",
          "name": "sender",
          "type": "address"
        }
      ],
      "name": "RoleRevoked",
      "type": "event"
    },
    {
      "anonymous": false,
      "inputs": [
        {
          "indexed": false,
          "internalType": "address",
          "name": "user",
          "type": "address"
        },
        {
          "indexed": false,
          "internalType": "uint256",
          "name": "amount",
          "type": "uint256"
        }
      ],
      "name": "ValueReceived",
      "type": "event"
    },
    {
      "anonymous": false,
      "inputs": [
        {
          "indexed": false,
          "internalType": "address",
          "name": "user",
          "type": "address"
        },
        {
          "indexed": false,
          "internalType": "uint256",
          "name": "amount",
          "type": "uint256"
        }
      ],
      "name": "WithDrawn",
      "type": "event"
    },
    {
      "inputs": [],
      "name": "ADMIN_ROLE",
      "outputs": [
        {
          "internalType": "bytes32",
          "name": "",
          "type": "bytes32"
        }
      ],
      "stateMutability": "view",
      "type": "function"
    },
    {
      "inputs": [],
      "name": "DEFAULT_ADMIN_ROLE",
      "outputs": [
        {
          "internalType": "bytes32",
          "name": "",
          "type": "bytes32"
        }
      ],
      "stateMutability": "view",
      "type": "function"
    },
    {
      "inputs": [],
      "name": "WITHDRAW_ROLE",
      "outputs": [
        {
          "internalType": "bytes32",
          "name": "",
          "type": "bytes32"
        }
      ],
      "stateMutability": "view",
      "type": "function"
    },
    {
      "inputs": [
        {
          "internalType": "uint256",
          "name": "",
          "type": "uint256"
        }
      ],
      "name": "funders",
      "outputs": [
        {
          "internalType": "address",
          "name": "",
          "type": "address"
        }
      ],
      "stateMutability": "view",
      "type": "function"
    },
    {
      "inputs": [
        {
          "internalType": "address",
          "name": "",
          "type": "address"
        }
      ],
      "name": "funds",
      "outputs": [
        {
          "internalType": "uint256",
          "name": "",
          "type": "uint256"
        }
      ],
      "stateMutability": "view",
      "type": "function"
    },
    {
      "inputs": [
        {
          "internalType": "bytes32",
          "name": "role",
          "type": "bytes32"
        }
      ],
      "name": "getRoleAdmin",
      "outputs": [
        {
          "internalType": "bytes32",
          "name": "",
          "type": "bytes32"
        }
      ],
      "stateMutability": "view",
      "type": "function"
    },
    {
      "inputs": [
        {
          "internalType": "bytes32",
          "name": "role",
          "type": "bytes32"
        },
        {
          "internalType": "address",
          "name": "account",
          "type": "address"
        }
      ],
      "name": "grantRole",
      "outputs": [],
      "stateMutability": "nonpayable",
      "type": "function"
    },
    {
      "inputs": [
        {
          "internalType": "bytes32",
          "name": "role",
          "type": "bytes32"
        },
        {
          "internalType": "address",
          "name": "account",
          "type": "address"
        }
      ],
      "name": "hasRole",
      "outputs": [
        {
          "internalType": "bool",
          "name": "",
          "type": "bool"
        }
      ],
      "stateMutability": "view",
      "type": "function"
    },
    {
      "inputs": [
        {
          "internalType": "bytes32",
          "name": "role",
          "type": "bytes32"
        },
        {
          "internalType": "address",
          "name": "account",
          "type": "address"
        }
      ],
      "name": "renounceRole",
      "outputs": [],
      "stateMutability": "nonpayable",
      "type": "function"
    },
    {
      "inputs": [
        {
          "internalType": "bytes32",
          "name": "role",
          "type": "bytes32"
        },
        {
          "internalType": "address",
          "name": "account",
          "type": "address"
        }
      ],
      "name": "revokeRole",
      "outputs": [],
      "stateMutability": "nonpayable",
      "type": "function"
    },
    {
      "inputs": [
        {
          "internalType": "bytes4",
          "name": "interfaceId",
          "type": "bytes4"
        }
      ],
      "name": "supportsInterface",
      "outputs": [
        {
          "internalType": "bool",
          "name": "",
          "type": "bool"
        }
      ],
      "stateMutability": "view",
      "type": "function"
    },
    {
      "stateMutability": "payable",
      "type": "receive"
    },
    {
      "inputs": [],
      "name": "withdraw_all",
      "outputs": [],
      "stateMutability": "nonpayable",
      "type": "function"
    },
    {
      "inputs": [
        {
          "internalType": "uint256",
          "name": "amount",
          "type": "uint256"
        }
      ],
      "name": "withdraw",
      "outputs": [],
      "stateMutability": "nonpayable",
      "type": "function"
    },
    {
      "inputs": [],
      "name": "funders_len",
      "outputs": [
        {
          "internalType": "uint256",
          "name": "",
          "type": "uint256"
        }
      ],
      "stateMutability": "view",
      "type": "function"
    },
    {
      "inputs": [],
      "name": "total_funds",
      "outputs": [
        {
          "internalType": "uint256",
          "name": "",
          "type": "uint256"
        }
      ],
      "stateMutability": "view",
      "type": "function"
    },
    {
      "inputs": [],
      "name": "balance",
      "outputs": [
        {
          "internalType": "uint256",
          "name": "",
          "type": "uint256"
        }
      ],
      "stateMutability": "view",
      "type": "function"
    }
  ],
  "bytecode": "0x60806040523480156200001157600080fd5b50620000447fc5d2460186f7233c927e7db2dcc703c0e500b653ca82273b7bfad8045d85a47033620000bd60201b60201c565b620000767f5d8e12c39142ff96d79d04d15d1ba1269e4fe57bb9d26f43523628b34ba108ec33620000bd60201b60201c565b33600360006101000a81548173ffffffffffffffffffffffffffffffffffffffff021916908373ffffffffffffffffffffffffffffffffffffffff16021790555062000236565b620000cf8282620000d360201b60201c565b5050565b620000e58282620001c460201b60201c565b620001c057600160008084815260200190815260200160002060000160008373ffffffffffffffffffffffffffffffffffffffff1673ffffffffffffffffffffffffffffffffffffffff16815260200190815260200160002060006101000a81548160ff021916908315150217905550620001656200022e60201b60201c565b73ffffffffffffffffffffffffffffffffffffffff168173ffffffffffffffffffffffffffffffffffffffff16837f2f8788117e7eff1d82e926ec794901d17c78024a50270940304540a733656f0d60405160405180910390a45b5050565b600080600084815260200190815260200160002060000160008373ffffffffffffffffffffffffffffffffffffffff1673ffffffffffffffffffffffffffffffffffffffff16815260200190815260200160002060009054906101000a900460ff16905092915050565b600033905090565b61170380620002466000396000f3fe6080604052600436106100f75760003560e01c8063a217fddf1161008a578063dd473d2b11610059578063dd473d2b146104aa578063e02023a1146104c1578063e2ae93fb146104ec578063e615642b1461052957610261565b8063a217fddf146103ee578063b69ef8a814610419578063d547741f14610444578063dc0d3dff1461046d57610261565b806334138814116100c6578063341388141461033257806336568abe1461035d57806375b238fc1461038657806391d14854146103b157610261565b806301ffc9a714610266578063248a9ca3146102a35780632e1a7d4d146102e05780632f2ff15d1461030957610261565b3661026157662386f26fc1000034118015610164575068056bc75e2d6310000034600160003373ffffffffffffffffffffffffffffffffffffffff1673ffffffffffffffffffffffffffffffffffffffff16815260200190815260200160002054610162919061145d565b105b61016d57600080fd5b6002339080600181540180825580915050600190039060005260206000200160009091909190916101000a81548173ffffffffffffffffffffffffffffffffffffffff021916908373ffffffffffffffffffffffffffffffffffffffff16021790555034600160003373ffffffffffffffffffffffffffffffffffffffff1673ffffffffffffffffffffffffffffffffffffffff168152602001908152602001600020600082825461021f919061145d565b925050819055507f7e71433ddf847725166244795048ecf3e3f9f35628254ecbf736056664233493333460405161025792919061135a565b60405180910390a1005b600080fd5b34801561027257600080fd5b5061028d600480360381019061028891906110e7565b610554565b60405161029a9190611383565b60405180910390f35b3480156102af57600080fd5b506102ca60048036038101906102c59190611082565b6105ce565b6040516102d7919061139e565b60405180910390f35b3480156102ec57600080fd5b5061030760048036038101906103029190611110565b6105ed565b005b34801561031557600080fd5b50610330600480360381019061032b91906110ab565b6106a3565b005b34801561033e57600080fd5b506103476106cc565b604051610354919061141b565b60405180910390f35b34801561036957600080fd5b50610384600480360381019061037f91906110ab565b6107af565b005b34801561039257600080fd5b5061039b610832565b6040516103a8919061139e565b60405180910390f35b3480156103bd57600080fd5b506103d860048036038101906103d391906110ab565b610856565b6040516103e59190611383565b60405180910390f35b3480156103fa57600080fd5b506104036108c0565b604051610410919061139e565b60405180910390f35b34801561042557600080fd5b5061042e6108c7565b60405161043b919061141b565b60405180910390f35b34801561045057600080fd5b5061046b600480360381019061046691906110ab565b6108cf565b005b34801561047957600080fd5b50610494600480360381019061048f9190611110565b6108f8565b6040516104a1919061133f565b60405180910390f35b3480156104b657600080fd5b506104bf610937565b005b3480156104cd57600080fd5b506104d66109f2565b6040516104e3919061139e565b60405180910390f35b3480156104f857600080fd5b50610513600480360381019061050e9190611059565b610a16565b604051610520919061141b565b60405180910390f35b34801561053557600080fd5b5061053e610a2e565b60405161054b919061141b565b60405180910390f35b60007f7965db0b000000000000000000000000000000000000000000000000000000007bffffffffffffffffffffffffffffffffffffffffffffffffffffffff1916827bffffffffffffffffffffffffffffffffffffffffffffffffffffffff191614806105c757506105c682610a3b565b5b9050919050565b6000806000838152602001908152602001600020600101549050919050565b7f5d8e12c39142ff96d79d04d15d1ba1269e4fe57bb9d26f43523628b34ba108ec61061f8161061a610aa5565b610aad565b3373ffffffffffffffffffffffffffffffffffffffff166108fc839081150290604051600060405180830381858888f19350505050158015610665573d6000803e3d6000fd5b507fec02563a2a279255d98a8379169a934c5dd4fb9f242313e6dd68269cf2d70468338360405161069792919061135a565b60405180910390a15050565b6106ac826105ce565b6106bd816106b8610aa5565b610aad565b6106c78383610b4a565b505050565b6000806000905060005b6002805490508110156107a7576001600060028381548110610721577f4e487b7100000000000000000000000000000000000000000000000000000000600052603260045260246000fd5b9060005260206000200160009054906101000a900473ffffffffffffffffffffffffffffffffffffffff1673ffffffffffffffffffffffffffffffffffffffff1673ffffffffffffffffffffffffffffffffffffffff1681526020019081526020016000205482610792919061145d565b9150808061079f906115e8565b9150506106d6565b819250505090565b6107b7610aa5565b73ffffffffffffffffffffffffffffffffffffffff168173ffffffffffffffffffffffffffffffffffffffff1614610824576040517f08c379a000000000000000000000000000000000000000000000000000000000815260040161081b906113fb565b60405180910390fd5b61082e8282610c2a565b5050565b7fc5d2460186f7233c927e7db2dcc703c0e500b653ca82273b7bfad8045d85a47081565b600080600084815260200190815260200160002060000160008373ffffffffffffffffffffffffffffffffffffffff1673ffffffffffffffffffffffffffffffffffffffff16815260200190815260200160002060009054906101000a900460ff16905092915050565b6000801b81565b600047905090565b6108d8826105ce565b6108e9816108e4610aa5565b610aad565b6108f38383610c2a565b505050565b6002818154811061090857600080fd5b906000526020600020016000915054906101000a900473ffffffffffffffffffffffffffffffffffffffff1681565b7f5d8e12c39142ff96d79d04d15d1ba1269e4fe57bb9d26f43523628b34ba108ec61096981610964610aa5565b610aad565b60004790503373ffffffffffffffffffffffffffffffffffffffff166108fc829081150290604051600060405180830381858888f193505050501580156109b4573d6000803e3d6000fd5b507fec02563a2a279255d98a8379169a934c5dd4fb9f242313e6dd68269cf2d7046833826040516109e692919061135a565b60405180910390a15050565b7f5d8e12c39142ff96d79d04d15d1ba1269e4fe57bb9d26f43523628b34ba108ec81565b60016020528060005260406000206000915090505481565b6000600280549050905090565b60007f01ffc9a7000000000000000000000000000000000000000000000000000000007bffffffffffffffffffffffffffffffffffffffffffffffffffffffff1916827bffffffffffffffffffffffffffffffffffffffffffffffffffffffff1916149050919050565b600033905090565b610ab78282610856565b610b4657610adc8173ffffffffffffffffffffffffffffffffffffffff166014610d0b565b610aea8360001c6020610d0b565b604051602001610afb929190611305565b6040516020818303038152906040526040517f08c379a0000000000000000000000000000000000000000000000000000000008152600401610b3d91906113b9565b60405180910390fd5b5050565b610b548282610856565b610c2657600160008084815260200190815260200160002060000160008373ffffffffffffffffffffffffffffffffffffffff1673ffffffffffffffffffffffffffffffffffffffff16815260200190815260200160002060006101000a81548160ff021916908315150217905550610bcb610aa5565b73ffffffffffffffffffffffffffffffffffffffff168173ffffffffffffffffffffffffffffffffffffffff16837f2f8788117e7eff1d82e926ec794901d17c78024a50270940304540a733656f0d60405160405180910390a45b5050565b610c348282610856565b15610d0757600080600084815260200190815260200160002060000160008373ffffffffffffffffffffffffffffffffffffffff1673ffffffffffffffffffffffffffffffffffffffff16815260200190815260200160002060006101000a81548160ff021916908315150217905550610cac610aa5565b73ffffffffffffffffffffffffffffffffffffffff168173ffffffffffffffffffffffffffffffffffffffff16837ff6391f5c32d9c69d2a47ea670b442974b53935d1edc7fd64eb21e047a839171b60405160405180910390a45b5050565b606060006002836002610d1e91906114b3565b610d28919061145d565b67ffffffffffffffff811115610d67577f4e487b7100000000000000000000000000000000000000000000000000000000600052604160045260246000fd5b6040519080825280601f01601f191660200182016040528015610d995781602001600182028036833780820191505090505b5090507f300000000000000000000000000000000000000000000000000000000000000081600081518110610df7577f4e487b7100000000000000000000000000000000000000000000000000000000600052603260045260246000fd5b60200101907effffffffffffffffffffffffffffffffffffffffffffffffffffffffffffff1916908160001a9053507f780000000000000000000000000000000000000000000000000000000000000081600181518110610e81577f4e487b7100000000000000000000000000000000000000000000000000000000600052603260045260246000fd5b60200101907effffffffffffffffffffffffffffffffffffffffffffffffffffffffffffff1916908160001a90535060006001846002610ec191906114b3565b610ecb919061145d565b90505b6001811115610fb7577f3031323334353637383961626364656600000000000000000000000000000000600f861660108110610f33577f4e487b7100000000000000000000000000000000000000000000000000000000600052603260045260246000fd5b1a60f81b828281518110610f70577f4e487b7100000000000000000000000000000000000000000000000000000000600052603260045260246000fd5b60200101907effffffffffffffffffffffffffffffffffffffffffffffffffffffffffffff1916908160001a905350600485901c945080610fb0906115be565b9050610ece565b5060008414610ffb576040517f08c379a0000000000000000000000000000000000000000000000000000000008152600401610ff2906113db565b60405180910390fd5b8091505092915050565b60008135905061101481611671565b92915050565b60008135905061102981611688565b92915050565b60008135905061103e8161169f565b92915050565b600081359050611053816116b6565b92915050565b60006020828403121561106b57600080fd5b600061107984828501611005565b91505092915050565b60006020828403121561109457600080fd5b60006110a28482850161101a565b91505092915050565b600080604083850312156110be57600080fd5b60006110cc8582860161101a565b92505060206110dd85828601611005565b9150509250929050565b6000602082840312156110f957600080fd5b60006111078482850161102f565b91505092915050565b60006020828403121561112257600080fd5b600061113084828501611044565b91505092915050565b6111428161150d565b82525050565b6111518161151f565b82525050565b6111608161152b565b82525050565b600061117182611436565b61117b8185611441565b935061118b81856020860161158b565b61119481611660565b840191505092915050565b60006111aa82611436565b6111b48185611452565b93506111c481856020860161158b565b80840191505092915050565b60006111dd602083611441565b91507f537472696e67733a20686578206c656e67746820696e73756666696369656e746000830152602082019050919050565b600061121d601783611452565b91507f416363657373436f6e74726f6c3a206163636f756e74200000000000000000006000830152601782019050919050565b600061125d601183611452565b91507f206973206d697373696e6720726f6c65200000000000000000000000000000006000830152601182019050919050565b600061129d602f83611441565b91507f416363657373436f6e74726f6c3a2063616e206f6e6c792072656e6f756e636560008301527f20726f6c657320666f722073656c6600000000000000000000000000000000006020830152604082019050919050565b6112ff81611581565b82525050565b600061131082611210565b915061131c828561119f565b915061132782611250565b9150611333828461119f565b91508190509392505050565b60006020820190506113546000830184611139565b92915050565b600060408201905061136f6000830185611139565b61137c60208301846112f6565b9392505050565b60006020820190506113986000830184611148565b92915050565b60006020820190506113b36000830184611157565b92915050565b600060208201905081810360008301526113d38184611166565b905092915050565b600060208201905081810360008301526113f4816111d0565b9050919050565b6000602082019050818103600083015261141481611290565b9050919050565b600060208201905061143060008301846112f6565b92915050565b600081519050919050565b600082825260208201905092915050565b600081905092915050565b600061146882611581565b915061147383611581565b9250827fffffffffffffffffffffffffffffffffffffffffffffffffffffffffffffffff038211156114a8576114a7611631565b5b828201905092915050565b60006114be82611581565b91506114c983611581565b9250817fffffffffffffffffffffffffffffffffffffffffffffffffffffffffffffffff048311821515161561150257611501611631565b5b828202905092915050565b600061151882611561565b9050919050565b60008115159050919050565b6000819050919050565b60007fffffffff0000000000000000000000000000000000000000000000000000000082169050919050565b600073ffffffffffffffffffffffffffffffffffffffff82169050919050565b6000819050919050565b60005b838110156115a957808201518184015260208101905061158e565b838111156115b8576000848401525b50505050565b60006115c982611581565b915060008214156115dd576115dc611631565b5b600182039050919050565b60006115f382611581565b91507fffffffffffffffffffffffffffffffffffffffffffffffffffffffffffffffff82141561162657611625611631565b5b600182019050919050565b7f4e487b7100000000000000000000000000000000000000000000000000000000600052601160045260246000fd5b6000601f19601f8301169050919050565b61167a8161150d565b811461168557600080fd5b50565b6116918161152b565b811461169c57600080fd5b50565b6116a881611535565b81146116b357600080fd5b50565b6116bf81611581565b81146116ca57600080fd5b5056fea26469706673582212206a1c54db4785932cee1205e4d78be8bdf7bba2dcb456cbea1932dd909d6ada4764736f6c63430008000033",
  "immutableReferences": {},
  "source": "// contracts/GameItems.sol\n// SPDX-License-Identifier: MIT\npragma solidity ^0.8.0;\n\nimport \"@openzeppelin/contracts/access/AccessControl.sol\";\n\ncontract Funding is AccessControl {\n  // roles\n  bytes32 public constant WITHDRAW_ROLE = keccak256(\"WITHDRAW_ROLE\");\n  bytes32 public constant ADMIN_ROLE = keccak256(\"\");\n\n  // events\n  event ValueReceived(address user, uint amount);\n  event WithDrawn(address user, uint amount);\n\n  // mappings and owner\n  mapping(address => uint256) public funds;\n  address[] public funders;\n  address payable owner;\n\n  constructor() {\n    _setupRole(ADMIN_ROLE, msg.sender);\n    _setupRole(WITHDRAW_ROLE, msg.sender);\n    owner = payable(msg.sender);\n  }\n\n  function withdraw_all() public onlyRole(WITHDRAW_ROLE) {\n    uint amount = address(this).balance;\n    payable(msg.sender).transfer(amount);\n    emit WithDrawn(msg.sender, amount);\n  }\n\n  function withdraw(uint256 amount) public onlyRole(WITHDRAW_ROLE) {\n    payable(msg.sender).transfer(amount);\n    emit WithDrawn(msg.sender, amount);\n  }\n\n  function funders_len() public view returns (uint) {\n    return funders.length;\n  }\n\n  function total_funds() public view returns (uint256) {\n    uint256 funds_in_total = 0;\n    uint i;\n    for(i=0; i<funders.length; i++) {\n      funds_in_total += funds[funders[i]];\n    }\n\n    return funds_in_total;\n  }\n\n  function balance() public view returns (uint256) {\n    return  address(this).balance;\n  }\n\n  receive() external payable {\n    require(msg.value > 0.01 ether && funds[msg.sender] + msg.value < 100 ether);\n    funders.push(msg.sender);\n    funds[msg.sender] += msg.value;\n    emit ValueReceived(msg.sender, msg.value);\n  }\n}",
  "sourcePath": "/home/chan/Black IDE/test/contracts/Funding.sol",
  "compiler": {
    "name": "solc",
    "version": "0.8.0+commit.c7dfd78e.Emscripten.clang"
  },
  "schemaVersion": "3.4.2",
  "updatedAt": "2022-05-13T11:38:42.049Z",
  "devdoc": {
    "kind": "dev",
    "methods": {
      "getRoleAdmin(bytes32)": {
        "details": "Returns the admin role that controls `role`. See {grantRole} and {revokeRole}. To change a role's admin, use {_setRoleAdmin}."
      },
      "grantRole(bytes32,address)": {
        "details": "Grants `role` to `account`. If `account` had not been already granted `role`, emits a {RoleGranted} event. Requirements: - the caller must have ``role``'s admin role."
      },
      "hasRole(bytes32,address)": {
        "details": "Returns `true` if `account` has been granted `role`."
      },
      "renounceRole(bytes32,address)": {
        "details": "Revokes `role` from the calling account. Roles are often managed via {grantRole} and {revokeRole}: this function's purpose is to provide a mechanism for accounts to lose their privileges if they are compromised (such as when a trusted device is misplaced). If the calling account had been granted `role`, emits a {RoleRevoked} event. Requirements: - the caller must be `account`."
      },
      "revokeRole(bytes32,address)": {
        "details": "Revokes `role` from `account`. If `account` had been granted `role`, emits a {RoleRevoked} event. Requirements: - the caller must have ``role``'s admin role."
      },
      "supportsInterface(bytes4)": {
        "details": "See {IERC165-supportsInterface}."
      }
    },
    "version": 1
  },
  "userdoc": {
    "kind": "user",
    "methods": {},
    "version": 1
  }
}